:100000000C9434000C9451000C9451000C94510049
:100010000C9451000C9451000C9451000C9451001C
:100020000C9451000C9451000C9451000C9451000C
:100030000C9451000C9451000C9451000C945100FC
:100040000C9451000C9451000C9451000C945100EC
:100050000C9451000C9451000C9451000C945100DC
:100060000C9451000C94510011241FBECFEFD8E026
:10007000DEBFCDBF11E0A0E0B1E0ECE6FDE002C0E4
:1000800005900D92A430B107D9F711E0A4E0B1E0DA
:1000900001C01D92A630B107E1F70E947E000C94CA
:1000A000B4060C940000AC019B011092C500A4E2C0
:1000B000B4EF0E948503E4E6E49F9001E59F300DD4
:1000C000112440E050E00E94940321503109209314
:1000D000C40088E18093C10086E28093C200089545
:1000E0008091C00087FFFCCF8091C6000895909159
:1000F000C00095FFFCCF8093C6000895CF93DF9397
:10010000CDB7DEB7C154D1090FB6F894DEBF0FBE2C
:10011000CDBF60E084E00E94680160E170E080E6AD
:1001200090E00E9453008E010E5D1F4F80E2F801A7
:1001300011928A95E9F7E12CF12C80E2782E90E07B
:10014000A92E91E0B92E21E2822ECE0101966C01FA
:100150000E947000982E0E947700F80190E2E91644
:10016000F10420F4EE0DFF1D908207C0872D11923F
:100170008A95E9F79AA2E12CF12C1F930F93BF9275
:10018000AF921F928F92DF92CF920E94D503C60149
:100190000E94DB019FEFE91AF90A0FB6F894DEBF5F
:1001A0000FBECDBFD5CF90910501992321F095B118
:1001B000982B95B9089598B1982B98B90895909176
:1001C00005018095992321F095B1982395B908955B
:1001D00098B1982398B9089588E00E94D30084E0EC
:1001E00090E00197F1F788E00C94DF001F93CF9324
:1001F000DF9317B1D4B1CAB1579880E20E94DF00F3
:1002000080E10E94D30002C00E94EC004F99FCCF15
:1002100088EC90E00197F1F717B9D4B9CAB9DF912A
:10022000CF911F910895EF92FF927C0180E20E948E
:10023000DF0080E10E94DF0080910401883029F412
:10024000EBB80E94EC000E94F6008091040184301B
:10025000B1F4C701807F99278BB90E94EC0084E03C
:1002600090E00197F1F784E0EE0CFF1C8A95E1F72E
:10027000EBB80E94EC00FF90EF900C94F600FF901A
:10028000EF90089580E20E94DF0080E10E94DF008D
:1002900080910401883041F481E08BB90E94EC0028
:1002A00080E49FE10197F1F780910401843079F4B3
:1002B0001BB80E94EC0084E090E00197F1F780E128
:1002C0008BB90E94EC0080E49FE10197F1F708955B
:1002D000EF92FF92CF93C82F6093050188E36623C6
:1002E00011F084B901C087B98AB1806F8AB92FE74C
:1002F00082E392E0215080409040E1F700C000008E
:1003000080E390E00E941301E0E1F0E43197F1F71F
:1003100080E390E00E94130190E9E92EFF24F3941A
:10032000F7013197F1F780E390E00E941301F701A4
:100330003197F1F7C830B1F4C09304018AB18FEF5F
:100340008AB988E390E00E94130188E090E00E945F
:1003500013010E94420186E090E00E9413018FE0A9
:1003600090E020C0C43019F5C093040188E00E94D9
:10037000DF0080E28BB988E00E94D30080E699E03C
:100380000197F1F788E290E00E94130188E090E085
:100390000E9413010E94420186E090E00E94130136
:1003A0008CE090E0CF91FF90EF900C941301CF91EF
:1003B000FF90EF9008958F929F92AF92BF92CF924D
:1003C000DF92EF92FF92CF935C010E944201E12CF9
:1003D000F12CC12CD12C54E0852E912C4DC08A30AB
:1003E00009F05CC020E1E216F1040CF052C08FEF7E
:1003F000E81AF80A08C090E4C916D1040CF043C00A
:1004000040E1E42EF12C30E4C32ED12CF501EE0DA9
:10041000FF1DC081C60180680E94130180E20E9416
:10042000D30080E10E94DF0080910401883029F42C
:10043000CBB90E94EC000E94F60080910401843048
:1004400089F48C2F807F8BB90E94EC00C401019746
:10045000F1F720E1C29FC00111248BB90E94EC008A
:100460000E94F6008FEFE81AF80A9FEFC91AD90A1E
:1004700020E2E216F104C4F4F501EE0DFF1D8081C7
:100480008111ADCF11C08A3079F020E1E22EF12C3C
:10049000BDCF90E1E916F10439F4ADCF20E1E216C9
:1004A000F10409F0B3CFA7CFCF91FF90EF90DF9089
:1004B000CF90BF90AF909F908F9008952F923F92D2
:1004C0004F925F926F927F928F929F92AF92BF9264
:1004D000CF92DF92EF92FF920F931F93CF93DF9310
:1004E000CDB7DEB7C456D1090FB6F894DEBF0FBE44
:1004F000CDBFA5969FAF8EAFA597FB0140E050E022
:100500000BC02191203219F44F5F5F4F05C02111BC
:1005100003C04F5F5F4F0AC09F01261B370BA59694
:100520008EAD9FADA597281739075CF3A3961FAE34
:100530001EAEA39720E030E0E0E0F0E08E010F5F18
:100540001F4F3A0191E0691A710880E2282E9EC07F
:10055000AFEFEA1AFA0AB0E25B120CC08FEFC81ACA
:10056000D80A570107C04B01E12CF12CA12CB12C6A
:10057000C12CD12CA396AEADBFADA397CA16DB0696
:1005800049F44B018A0C9B1C6801E12CF12CA01A48
:10059000B10A13C0D4015D904D01552091F3A59689
:1005A0008EAD9FADA597E816F90694F2EACFD60175
:1005B0003D926D017D01E01AF10AD4013D904D019B
:1005C000B0E23B120DC06801CE0CDF1CD6011C92BC
:1005D0006F01CE0CDF1CB1E1CB16D10474F419C04D
:1005E000332089F325014C0C5D1CA5968EAD9FAD83
:1005F000A59748165906DCF2E6CFE1E4F0E0EC0FEF
:10060000FD1FE20FF31F9AE090832F5F3F4FE0E062
:10061000F0E05801C12CD12CB1E48B2E912C8C0E22
:100620009D1E820E931E0BC0D5013D905D012401DD
:100630004C0C5D1CD2013C92BFEFCB1ADB0ACE14EE
:10064000DF0494F3F7FE02C0E12CF12CEE0DFF1D48
:100650002E0D3F1DA3968EAD9FADA39786159705D2
:1006600064F4A1E4EA2EF12CEC0EFD1EE20EF31E62
:10067000D7012C922F5F3F4F3196A3968EAD9FAD41
:10068000A3970196A3969FAF8EAFA397A396AEAD07
:10069000BFADA397A417B5070CF465CF7E01B1E4F5
:1006A000EB0EF11CF701E20FF31F1082FF92EF92A5
:1006B00080E091E09F938F931F9280E28F93FF924F
:1006C000EF920E94D503C7010E94DB010FB6F89498
:1006D000DEBF0FBECDBFCC59DF4F0FB6F894DEBFE3
:1006E0000FBECDBFDF91CF911F910F91FF90EF9083
:1006F000DF90CF90BF90AF909F908F907F906F9042
:100700005F904F903F902F900895A29FB001B39FAC
:10071000C001A39F700D811D1124911DB29F700D0A
:10072000811D1124911D0895052E97FB1EF4009440
:100730000E94AB0357FD07D00E94B30307FC03D010
:100740004EF40C94AB0350954095309521953F4F56
:100750004F4F5F4F089590958095709561957F4FAD
:100760008F4F9F4F0895A1E21A2EAA1BBB1BFD01BC
:100770000DC0AA1FBB1FEE1FFF1FA217B307E40780
:10078000F50720F0A21BB30BE40BF50B661F771FD8
:10079000881F991F1A9469F76095709580959095B8
:1007A0009B01AC01BD01CF010895AEE0B0E0EBEDDF
:1007B000F3E00C948B060D891E898F89988D26E0B5
:1007C0002C831A83098397FF02C080E090E8019789
:1007D0009E838D83AE01455E5F4F698D7A8DCE011C
:1007E00001960E9405044D815E8157FD0AC02F814C
:1007F0003885421753070CF49A01F801E20FF31FF2
:1008000010822E96E4E00C94A706ACE0B0E0EBE09A
:10081000F4E00C947D067C016B018A01FC011782D7
:100820001682838181FFBDC1CE0101964C01F70183
:100830009381F60193FD859193FF81916F01882348
:1008400009F4ABC1853239F493FD859193FF819111
:100850006F01853229F4B70190E00E94ED05E7CFE2
:10086000512C312C20E02032A0F48B3269F030F48E
:10087000803259F0833269F420612CC08D3239F016
:10088000803339F4216026C02260246023C02860B0
:1008900021C027FD27C030ED380F3A3078F426FF0D
:1008A00006C0FAE05F9E300D1124532E13C08AE07B
:1008B000389E300D1124332E20620CC08E3221F46C
:1008C00026FD6BC1206406C08C3611F4206802C07E
:1008D000883641F4F60193FD859193FF81916F0174
:1008E0008111C1CF982F9F7D9554933028F40C5FD0
:1008F0001F4FFFE3F9830DC0833631F0833771F06A
:10090000833509F05BC022C0F801808189830E5FC6
:100910001F4F44244394512C540115C03801F2E078
:100920006F0E711CF801A080B18026FF03C0652DF9
:1009300070E002C06FEF7FEFC5012C870E94E205D7
:100940002C0183012C852F77222E17C03801F2E06D
:100950006F0E711CF801A080B18026FF03C0652DC9
:1009600070E002C06FEF7FEFC5012C870E94D705B2
:100970002C012C852068222E830123FC1BC0832D93
:1009800090E048165906B0F4B70180E290E00E946A
:10099000ED053A94F4CFF50127FC859127FE81916E
:1009A0005F01B70190E00E94ED0531103A94F1E04B
:1009B0004F1A51084114510471F7E5C0843611F003
:1009C000893639F5F80127FF07C06081718182817E
:1009D00093810C5F1F4F08C060817181882777FD6C
:1009E0008095982F0E5F1F4F2F76B22E97FF09C06C
:1009F00090958095709561957F4F8F4F9F4F2068A0
:100A0000B22E2AE030E0A4010E941F06A82EA818EA
:100A100044C0853729F42F7EB22E2AE030E025C06D
:100A2000F22FF97FBF2E8F36C1F018F4883579F098
:100A3000B4C0803719F0883721F0AFC02F2F206164
:100A4000B22EB4FE0DC08B2D8460B82E09C024FFD9
:100A50000AC09F2F9660B92E06C028E030E005C07E
:100A600020E130E002C020E132E0F801B7FE07C02B
:100A700060817181828193810C5F1F4F06C060810C
:100A8000718180E090E00E5F1F4FA4010E941F065D
:100A9000A82EA818FB2DFF77BF2EB6FE0BC02B2D5E
:100AA0002E7FA51450F4B4FE0AC0B2FC08C02B2D52
:100AB0002E7E05C07A2C2B2D03C07A2C01C0752CFC
:100AC00024FF0DC0FE01EA0DF11D8081803311F479
:100AD000297E09C022FF06C07394739404C0822F3C
:100AE000867809F0739423FD13C020FF06C05A2CAA
:100AF000731418F4530C5718732C731468F4B7015B
:100B000080E290E02C870E94ED0573942C85F5CF50
:100B1000731410F4371801C0312C24FF12C0B70130
:100B200080E390E02C870E94ED052C8522FF17C002
:100B300021FF03C088E590E002C088E790E0B7019C
:100B40000CC0822F867859F021FD02C080E201C0DE
:100B50008BE227FD8DE2B70190E00E94ED05A51420
:100B600038F4B70180E390E00E94ED055A94F7CF86
:100B7000AA94F401EA0DF11D8081B70190E00E9472
:100B8000ED05A110F5CF332009F451CEB70180E275
:100B900090E00E94ED053A94F6CFF70186819781A7
:100BA00002C08FEF9FEF2C96E2E10C949906FC01B6
:100BB0000590615070400110D8F7809590958E0F88
:100BC0009F1F0895FC016150704001900110D8F7FB
:100BD000809590958E0F9F1F08950F931F93CF932D
:100BE000DF93182F092FEB018B8181FD03C08FEF5D
:100BF0009FEF20C082FF10C04E815F812C813D811C
:100C0000421753077CF4E881F9819F012F5F3F4F22
:100C100039832883108306C0E885F985812F0995DB
:100C2000892B29F72E813F812F5F3F4F3F832E83F2
:100C3000812F902FDF91CF911F910F910895FA018D
:100C4000AA27283051F1203181F1E8946F936E7F0B
:100C50006E5F7F4F8F4F9F4FAF4FB1E03ED0B4E0FC
:100C60003CD0670F781F891F9A1FA11D680F791F3D
:100C70008A1F911DA11D6A0F711D811D911DA11D4E
:100C800020D009F468943F912AE0269F112430195E
:100C9000305D3193DEF6CF010895462F4770405DF9
:100CA0004193B3E00FD0C9F7F6CF462F4F70405DA8
:100CB0004A3318F0495D31FD4052419302D0A9F703
:100CC000EACFB4E0A6959795879577956795BA95FD
:100CD000C9F700976105710508959B01AC010A2EC3
:100CE00006945795479537952795BA95C9F7620F9A
:100CF000731F841F951FA01D08952F923F924F923E
:100D00005F926F927F928F929F92AF92BF92CF929B
:100D1000DF92EF92FF920F931F93CF93DF93CDB7A4
:100D2000DEB7CA1BDB0B0FB6F894DEBF0FBECDBF1C
:100D300009942A88398848885F846E847D848C84ED
:100D40009B84AA84B984C884DF80EE80FD800C81F6
:100D50001B81AA81B981CE0FD11D0FB6F894DEBFD9
:0C0D60000FBECDBFED010895F894FFCF49
:040D6C0025730000EB
:00000001FF
