:100000000C9434000C9451000C9451000C94510049
:100010000C9451000C9451000C9451000C9451001C
:100020000C9451000C9451000C9451000C9451000C
:100030000C9451000C9451000C9451000C945100FC
:100040000C9451000C9451000C9451000C945100EC
:100050000C9451000C9451000C9451000C945100DC
:100060000C9451000C94510011241FBECFEFD8E026
:10007000DEBFCDBF11E0A0E0B1E0E8E8FDE002C0E6
:1000800005900D92A430B107D9F711E0A4E0B1E0DA
:1000900001C01D92A630B107E1F70E947E000C94CA
:1000A000C2060C940000AC019B011092C500A4E2B2
:1000B000B4EF0E948303E4E6E49F9001E59F300DD6
:1000C000112440E050E00E948F0321503109209319
:1000D000C40088E18093C10086E28093C200089545
:1000E0008091C00087FFFCCF8091C6000895909159
:1000F000C00095FFFCCF8093C6000895CF93DF9397
:10010000CDB7DEB7C154D1090FB6F894DEBF0FBE2C
:10011000CDBF60E084E00E94660160E170E080E6AF
:1001200090E00E945300E12CF12C82E2C82ED12CE9
:10013000CC0EDD1E90E2792E20E0822E21E0922E60
:1001400001E2AA24A394B12CAC0EBD1E0E94700043
:10015000182F0E947700F60180E2E816F10420F4DF
:10016000EE0DFF1D108307C0872D11928A95E9F7C8
:100170001AA3E12CF12CDF92CF929F928F921F92C3
:100180000F93BF92AF920E94CD03C5010E94D90187
:100190009FEFE91AF90A0FB6F894DEBF0FBECDBF84
:1001A000D5CF90910501992321F095B1982B95B960
:1001B000089598B1982B98B908959091050180956C
:1001C000992321F095B1982395B9089598B1982372
:1001D00098B9089588E00E94D10084E090E00197EA
:1001E000F1F788E00C94DD001F93CF93DF9317B1F4
:1001F000D4B1CAB1579880E20E94DD0080E10E942C
:10020000D10002C00E94EA004F99FCCF88EC90E038
:100210000197F1F717B9D4B9CAB9DF91CF911F91FE
:100220000895EF92FF927C0180E20E94DD0080E160
:100230000E94DD0080910401883029F4EBB80E940F
:10024000EA000E94F400809104018430B1F4C701F7
:10025000807F99278BB90E94EA0084E090E00197A3
:10026000F1F784E0EE0CFF1C8A95E1F7EBB80E94F1
:10027000EA00FF90EF900C94F400FF90EF90089547
:1002800080E20E94DD0080E10E94DD008091040197
:10029000883041F481E08BB90E94EA0080E49FE15C
:1002A0000197F1F780910401843079F41BB80E9422
:1002B000EA0084E090E00197F1F780E18BB90E94B9
:1002C000EA0080E49FE10197F1F70895EF92FF9231
:1002D000CF93C82F6093050188E3662311F084B99A
:1002E00001C087B98AB1806F8AB92FE782E392E0B3
:1002F000215080409040E1F700C0000080E390E092
:100300000E941101E0E1F0E43197F1F780E390E021
:100310000E94110190E9E92EFF24F394F70131972F
:10032000F1F780E390E00E941101F7013197F1F7B6
:10033000C830B1F4C09304018AB18FEF8AB988E361
:1003400090E00E94110188E090E00E9411010E945B
:10035000400186E090E00E9411018FE090E020C013
:10036000C43019F5C093040188E00E94DD0080E2EA
:100370008BB988E00E94D10080E699E00197F1F7FF
:1003800088E290E00E94110188E090E00E94110153
:100390000E94400186E090E00E9411018CE090E014
:1003A000CF91FF90EF900C941101CF91FF90EF90BF
:1003B00008958F929F92AF92BF92CF92DF92EF9269
:1003C000FF92CF935C010E944001E12CF12CC12CE3
:1003D000D12C54E0852E912C4DC08A3009F05CC0A0
:1003E00020E1E216F1040CF052C08FEFE81AF80A8F
:1003F00008C090E4C916D1040CF043C040E1E42EDB
:10040000F12C30E4C32ED12CF501EE0DFF1DC0817F
:10041000C60180680E94110180E20E94D10080E143
:100420000E94DD0080910401883029F4CBB90E943C
:10043000EA000E94F40080910401843089F48C2F3A
:10044000807F8BB90E94EA00C4010197F1F720E197
:10045000C29FC00111248BB90E94EA000E94F400DF
:100460008FEFE81AF80A9FEFC91AD90A20E2E216BC
:10047000F104C4F4F501EE0DFF1D80818111ADCFB3
:1004800011C08A3079F020E1E22EF12CBDCF90E14D
:10049000E916F10439F4ADCF20E1E216F10409F0D8
:1004A000B3CFA7CFCF91FF90EF90DF90CF90BF90C9
:1004B000AF909F908F9008952F923F924F925F92AE
:1004C0006F927F928F929F92AF92BF92CF92DF9264
:1004D000EF92FF920F931F93CF93DF93CDB7DEB7C9
:1004E000C456D1090FB6F894DEBF0FBECDBFA59696
:1004F0009FAF8EAFA597FB0140E050E00BC021916C
:10050000203219F44F5F5F4F05C0211103C04F5FC8
:100510005F4F0AC09F01261B370BA5968EAD9FAD7E
:10052000A597281739075CF3A3961FAE1EAEA397B5
:1005300020E030E0E0E0F0E08E010F5F1F4F3A0175
:1005400091E0691A710880E2282E9EC0AFEFEA1A86
:10055000FA0AB0E25B120CC08FEFC81AD80A570132
:1005600007C04B01E12CF12CA12CB12CC12CD12CBA
:10057000A396AEADBFADA397CA16DB0649F44B01F7
:100580008A0C9B1C6801E12CF12CA01AB10A13C043
:10059000D4015D904D01552091F3A5968EAD9FAD90
:1005A000A597E816F90694F2EACFD6013D926D01BF
:1005B0007D01E01AF10AD4013D904D01B0E23B12F9
:1005C0000DC06801CE0CDF1CD6011C926F01CE0C51
:1005D000DF1CB1E1CB16D10474F419C0332089F3C8
:1005E00025014C0C5D1CA5968EAD9FADA5974816B8
:1005F0005906DCF2E6CFE1E4F0E0EC0FFD1FE20F7C
:10060000F31F9AE090832F5F3F4FE0E0F0E0580146
:10061000C12CD12CB1E48B2E912C8C0E9D1E820E00
:10062000931E0BC0D5013D905D0124014C0C5D1C57
:10063000D2013C92BFEFCB1ADB0ACE14DF0494F355
:10064000F7FE02C0E12CF12CEE0DFF1D2E0D3F1D1B
:10065000A3968EAD9FADA3978615970564F4A1E48C
:10066000EA2EF12CEC0EFD1EE20EF31ED7012C92A9
:100670002F5F3F4F3196A3968EAD9FADA397019606
:10068000A3969FAF8EAFA397A396AEADBFADA39732
:10069000A417B5070CF465CF7E01B1E4EB0EF11C95
:1006A000F701E20FF31F1082FF92EF9280E091E0DA
:1006B0009F938F931F9280E28F93FF92EF920E94FD
:1006C000CD03C7010E94D9010FB6F894DEBF0FBE5B
:1006D000CDBFCC59DF4F0FB6F894DEBF0FBECDBFF4
:1006E000DF91CF911F910F91FF90EF90DF90CF900E
:1006F000BF90AF909F908F907F906F905F904F9042
:100700003F902F900895A29FB001B39FC001A39F77
:1007100001D0B29F700D811D1124911D0895052EE9
:1007200097FB16F4009407D057FD0DD00E94AB0341
:1007300007FC09D07EF490958095709561957F4F68
:100740008F4F9F4F089550954095309521953F4F7D
:100750004F4F5F4F0895A1E21A2EAA1BBB1BFD014C
:100760000DC0AA1FBB1FEE1FFF1FA217B307E40790
:10077000F50720F0A21BB30BE40BF50B661F771FE8
:10078000881F991F1A9469F76095709580959095C8
:100790009B01AC01BD01CF010895EF92FF92CF9371
:1007A000DF93CDB7DEB72E970FB6F894DEBF0FBE3E
:1007B000CDBFED88FE888F89988D26E02C83FA8244
:1007C000E98297FF02C080E090E801979E838D83C5
:1007D000CE014B96AC01698D7A8DCE0101960E94B7
:1007E0000A044D815E8157FD0AC02F81388542176A
:1007F00053070CF49A01F701E20FF31F10822E96B3
:100800000FB6F894DEBF0FBECDBFDF91CF91FF9042
:10081000EF900895ACE0B0E0E0E1F4E00C948B06DA
:100820006C015B017A01FC0117821682838181FFD2
:10083000C1C166246394712C6C0E7D1EF6019381F8
:10084000F50193FD859193FF81915F01882309F460
:10085000ADC1853239F493FD859193FF81915F019C
:10086000853229F4B60190E00E94F705E7CF512CBC
:1008700010E020E02032A8F48B3261F028F48032BE
:1008800051F0833271F40BC08D3239F0803349F46A
:10089000216028C02260246025C0286023C0206118
:1008A00021C027FD27C0382F30533A3078F426FF77
:1008B00006C0FAE05F9E300D1124532E13C04AE0AB
:1008C000149F300D1124132F20620CC08E3221F49E
:1008D00026FD6CC1206406C08C3611F4206802C06D
:1008E000883641F4F50193FD859193FF81915F0175
:1008F0008111C0CF982F9554933018F090529330B7
:1009000030F4F4E0EF0EF11C4FE349830EC0833660
:1009100031F0833779F0833509F05DC023C0F701EA
:100920008081898342E0E40EF11C44244394512CDD
:10093000430115C0170152E0250E311CF7018080DC
:10094000918026FF03C0652D70E002C06FEF7FEF3E
:10095000C4012C870E94EC052C0171012C85022F0B
:100960000F7717C01701F2E02F0E311CF7018080BE
:10097000918026FF03C0652D70E002C06FEF7FEF0E
:10098000C4012C870E94E1052C012C85022F0068F0
:10099000710103FD1CC006C0B60180E290E00E9418
:1009A000F7051150812F90E048165906A8F30FC0A3
:1009B000F40107FD859107FF81914F01B60190E099
:1009C0000E94F70511111150F1E04F1A510841141E
:1009D000510471F7E8C0843611F0893651F5F701FA
:1009E00027FF07C0608171818281938144E050E0DC
:1009F00008C060817181882777FD8095982F42E03B
:100A000050E0E40EF51E3FE6432E422297FF09C058
:100A100090958095709561957F4F8F4F9F4F50E8CF
:100A2000452A2AE030E0A3010E942D06882E861870
:100A300040C0022F853721F40F7E2AE030E01FC02E
:100A4000097F8F36A1F020F4883509F0AFC00BC0C4
:100A5000803721F0883709F0A9C001C0006104FF88
:100A600009C0046007C024FF08C0066006C028E073
:100A700030E005C020E130E002C020E132E0F701C3
:100A800007FF07C0608171818281938144E050E05B
:100A900006C06081718180E090E042E050E0E40EA9
:100AA000F51EA3010E942D06882E86188FE7482E7A
:100AB000402246FE0BC0042D0E7F851450F444FEE8
:100AC0000AC042FC08C0042D0E7E05C0982C042DDF
:100AD00003C0982C01C0952C04FF0DC0FE01E80D49
:100AE000F11D8081803311F4097E09C002FF06C028
:100AF0009394939404C0802F867809F0939403FD17
:100B000012C000FF0DC0582C911650F4510E591808
:100B1000912E06C0B60180E290E00E94F705939402
:100B20009116C0F304C0911610F4191901C010E019
:100B300004FF10C0B60180E390E00E94F70502FFB9
:100B40001EC001FF03C088E590E002C088E790E086
:100B5000B6010CC0802F867891F001FD02C080E2C2
:100B600001C08BE207FD8DE2B60190E00E94F7051F
:100B700006C0B60180E390E00E94F7055A94851400
:100B8000C0F38A94F301E80DF11DB601808190E075
:100B90000E94F7058110F5CF06C0B60180E290E013
:100BA0000E94F70511501111F8CF48CEF6012681A9
:100BB000378102C02FEF3FEFC9012C96E2E10C9480
:100BC000A706FC010590615070400110D8F7809590
:100BD00090958E0F9F1F0895FC0161507040019009
:100BE0000110D8F7809590958E0F9F1F0895CF9292
:100BF000DF92EF92FF926C017B01DB0113968C91E7
:100C000081FD04C0CC24CA94DC2C21C082FF10C01A
:100C1000FB012681378184819581281739078CF45F
:100C20000190F081E02DC192DB01ED93FC9309C0AE
:100C3000DB011896ED91FC9119978C2D0995892B64
:100C400009F7F70186819781019697838683C6010C
:100C5000FF90EF90DF90CF900895FA01AA272830F7
:100C600051F1203181F1E8946F936E7F6E5F7F4F79
:100C70008F4F9F4FAF4FB1E03ED0B4E03CD0670FF5
:100C8000781F891F9A1FA11D680F791F8A1F911D48
:100C9000A11D6A0F711D811D911DA11D20D009F498
:100CA00068943F912AE0269F11243019305D3193DA
:100CB000DEF6CF010895462F4770405D4193B3E0C3
:100CC0000FD0C9F7F6CF462F4F70405D4A3318F06A
:100CD000495D31FD4052419302D0A9F7EACFB4E01B
:100CE000A6959795879577956795BA95C9F70097D3
:100CF0006105710508959B01AC010A2E0694579574
:100D0000479537952795BA95C9F7620F731F841FCA
:100D1000951FA01D08952F923F924F925F926F9260
:100D20007F928F929F92AF92BF92CF92DF92EF927B
:100D3000FF920F931F93CF93DF93CDB7DEB7CA1BFC
:100D4000DB0B0FB6F894DEBF0FBECDBF09942A8827
:100D5000398848885F846E847D848C849B84AA84CF
:100D6000B984C884DF80EE80FD800C811B81AA815C
:100D7000B981CE0FD11D0FB6F894DEBF0FBECDBF27
:080D8000ED010895F894FFCF86
:040D880025730000CF
:00000001FF
