:100000000C9434000C9451000C9451000C94510049
:100010000C9451000C9451000C9451000C9451001C
:100020000C9451000C9451000C9451000C9451000C
:100030000C9451000C9451000C9451000C945100FC
:100040000C9451000C9451000C9451000C945100EC
:100050000C9451000C9451000C9451000C945100DC
:100060000C9451000C94510011241FBECFEFD8E026
:10007000DEBFCDBF11E0A0E0B1E0E0E8FFE002C0EC
:1000800005900D92A63AB107D9F711E0A6EAB1E0C2
:1000900001C01D92A93AB107E1F70E948F010C94AB
:1000A000BE070C940000AC019B011092C500A4E2B5
:1000B000B4EF0E946704E4E6E49F9001E59F300DF1
:1000C000112440E050E00E948A042150310920931D
:1000D000C40088E18093C10086E28093C200089545
:1000E0008091C00087FFFCCF8091C6000895909159
:1000F000C00095FFFCCF8093C6000895CF93DF9397
:100100009C01EB010097E9F0FC0140E050E080E049
:1001100090E0BF01621B730BA191B6EDBA0FB23034
:10012000B0F0BA2FBD7FBD3291F060ED6A0F6A303A
:1001300028F4B0E0D0978A0F9B1FEBCF41E050E04E
:10014000E8CF40E050E060E070E080E090E0F9014E
:10015000E60FF71FE081EA52E63008F0C3C0F0E096
:10016000E056FE4F6081662309F4BCC0232B09F0E2
:10017000FFCF4115510589F141305105B9F480E0B7
:1001800091E09F938F9386E291E09F938F93DF930B
:10019000CF931F921F920E94DF048DB79EB70896DF
:1001A0000FB6F8949EBF0FBE8DBFB6C084E491E039
:1001B0009F938F9386E291E09F938F93DF93CF93EA
:1001C0001F921F920E94DF048DB79EB708960FB64C
:1001D000F8949EBF0FBE8DBF9FC0633009F454C01A
:1001E000E4F46130B9F1623009F096C01F921F92B9
:1001F0001F921F9282E691E09F938F93DF93CF939C
:100200001F921F920E94DF048DB79EB70A960FB609
:10021000F8949EBF0FBE8DBF7FC0643009F44BC001
:10022000653009F079C08AE691E09F938F9386E26A
:1002300091E09F938F93DF93CF931F921F920E9421
:10024000DF048DB79EB708960FB6F8949EBF0FBE19
:100250008DBF62C0BA010E9476047F936F931F9294
:100260001F9282E691E09F938F93DF93CF931F922B
:100270001F920E94DF048DB79EB70A960FB6F894BE
:100280009EBF0FBE8DBF48C09F938F931F921F923A
:1002900082E691E09F938F93DF93CF931F921F92FB
:1002A0000E94DF048DB79EB70A960FB6F8949EBFE2
:1002B0000FBE8DBF31C09F938F931F921F9282E616
:1002C00091E09F938F93DF93CF931F921F920E9491
:1002D000DF048DB79EB70A960FB6F8949EBF0FBE87
:1002E0008DBF1AC0232BB9F489E291E09F938F93BD
:1002F00086E291E09F938F93DF93CF931F921F929B
:100300000E94DF048DB79EB708960FB6F8949EBF83
:100310000FBE8DBF01C02CCFDF91CF910895CF9339
:10032000DF93CDB7DEB7A0970FB6F894DEBF0FBE50
:10033000CDBF84E090E00E94380260E170E080E68A
:1003400090E00E94530081E08093A80180E9C82ECC
:1003500081E0D82E9BE9E92E91E0F92E20E2A22E31
:100360008E010F5F1F4F0E947000B82E0E94770011
:100370001F92BF92DF92CF92FF92EF921F92AF92A5
:100380001F930F930E94DF04C8010E94AC020FB6B6
:10039000F894DEBF0FBECDBFE6CF459844982091BC
:1003A000A6013091A7012830310559F443988BB943
:1003B000439AE0E9F1E0DF011197F1F743983197B3
:1003C000F1F72091A6013091A70124303105F1F415
:1003D00043989C01207F33272BB9439A20E931E0D1
:1003E000F9013197F1F74398F9013197F1F7439803
:1003F00044E0880F991F4A95E1F78BB9439AC901E8
:100400000197F1F74398C9010197F1F708954598CD
:1004100044988091A6019091A701089761F44398B0
:1004200081E08BB9439A80E49FE1FC013197F1F7B9
:1004300043980197F1F78091A6019091A701049745
:10044000B1F443981BB8439A80E49FE1FC013197D3
:10045000F1F74398FC013197F1F7439820E12BB96C
:10046000439AFC013197F1F743980197F1F708950A
:10047000CF92DF92EF92FF927C0188E387B98AB135
:10048000806F8AB92FE782E392E02150804090404C
:10049000E1F700C0000080E390E00E94CD0180E120
:1004A00090E40197F1F780E390E00E94CD0150E9DC
:1004B000C52EDD24D394C6010197F1F780E390E0C7
:1004C0000E94CD01C6010197F1F728E0E216F10480
:1004D000C1F4F092A701E092A6018AB18FEF8AB928
:1004E00088E390E00E94CD0188E090E00E94CD0179
:1004F0000E94070286E090E00E94CD018FE090E02C
:1005000020C084E0E816F10411F5F092A701E09212
:10051000A601439880E28BB9439A80E699E001975F
:10052000F1F788E290E00E94CD0188E090E00E941F
:10053000CD010E94070286E090E00E94CD018CE090
:1005400090E0FF90EF90DF90CF900C94CD01FF9062
:10055000EF90DF90CF9008958F929F92AF92BF92CD
:10056000CF92DF92EF92FF92CF934C010E9407024D
:10057000E12CF12CC12CD12CF0E9AF2EBB24B3948B
:100580005DC08A3009F06CC020E1E216F1040CF085
:1005900062C08FEFE81AF80A08C090E4C916D104C7
:1005A0000CF053C0E0E1EE2EF12C70E4C72ED12CFC
:1005B000F401EE0DFF1DC081C60180680E94CD01CF
:1005C000459A44982091A6013091A7012830310521
:1005D00051F44398CBB9439AC5010197F1F7439879
:1005E000C5010197F1F72091A6013091A7012430B0
:1005F0003105D1F443988C2F807F8BB9439AC50184
:100600000197F1F74398C5010197F1F7439820E16D
:10061000C29FC00111248BB9439AC5010197F1F71C
:100620004398C5010197F1F78FEFE81AF80A9FEF99
:10063000C91AD90A20E2E216F104C4F4F401EE0D5D
:10064000FF1D808181119DCF11C08A3079F060E15A
:10065000E62EF12CADCF90E1E916F10439F49DCFEF
:1006600020E1E216F10409F0A3CF97CFCF91FF90DC
:10067000EF90DF90CF90BF90AF909F908F900895B4
:100680002F923F924F925F926F927F928F929F92A2
:10069000AF92BF92CF92DF92EF92FF920F931F9390
:1006A000CF93DF93CDB7DEB7C456D1090FB6F89418
:1006B000DEBF0FBECDBFA5969FAF8EAFA597FB0146
:1006C00040E050E00BC02191203219F44F5F5F4FA2
:1006D00005C0211103C04F5F5F4F0AC09F01261B59
:1006E000370BA5968EAD9FADA597281739075CF3FC
:1006F000A3961FAE1EAEA39720E030E0E0E0F0E04E
:100700008E010F5F1F4F3A0191E0691A710880E274
:10071000282E9EC0AFEFEA1AFA0AB0E25B120CC0B4
:100720008FEFC81AD80A570107C04B01E12CF12CF2
:10073000A12CB12CC12CD12CA396AEADBFADA397EB
:10074000CA16DB0649F44B018A0C9B1C6801E12C9C
:10075000F12CA01AB10A13C0D4015D904D015520AF
:1007600091F3A5968EAD9FADA597E816F90694F284
:10077000EACFD6013D926D017D01E01AF10AD40164
:100780003D904D01B0E23B120DC06801CE0CDF1C64
:10079000D6011C926F01CE0CDF1CB1E1CB16D10447
:1007A00074F419C0332089F325014C0C5D1CA59607
:1007B0008EAD9FADA59748165906DCF2E6CFE1E471
:1007C000F0E0EC0FFD1FE20FF31F9AE090832F5F24
:1007D0003F4FE0E0F0E05801C12CD12CB1E48B2E6A
:1007E000912C8C0E9D1E820E931E0BC0D5013D9048
:1007F0005D0124014C0C5D1CD2013C92BFEFCB1A71
:10080000DB0ACE14DF0494F3F7FE02C0E12CF12CD6
:10081000EE0DFF1D2E0D3F1DA3968EAD9FADA39730
:100820008615970564F4A1E4EA2EF12CEC0EFD1E6A
:10083000E20EF31ED7012C922F5F3F4F3196A39605
:100840008EAD9FADA3970196A3969FAF8EAFA39752
:10085000A396AEADBFADA397A417B5070CF465CFB3
:100860007E01B1E4EB0EF11CF701E20FF31F1082E1
:10087000FF92EF9286E291E09F938F931F9280E226
:100880008F93FF92EF920E94DF04C7010E94AC0297
:100890000FB6F894DEBF0FBECDBFCC59DF4F0FB6F9
:1008A000F894DEBF0FBECDBFDF91CF911F910F91A6
:1008B000FF90EF90DF90CF90BF90AF909F908F9080
:1008C0007F906F905F904F903F902F900895A29FE0
:1008D000B001B39FC001A39F700D811D1124911D14
:1008E000B29F700D811D1124911D089597FB072E55
:1008F00016F4009407D077FD09D00E94A90407FCE4
:1009000005D03EF4909581959F4F0895709561951F
:100910007F4F0895052E97FB1EF400940E94A104BA
:1009200057FD07D00E94BD0407FC03D04EF40C9481
:10093000A10450954095309521953F4F4F4F5F4F03
:10094000089590958095709561957F4F8F4F9F4F3B
:100950000895AA1BBB1B51E107C0AA1FBB1FA61706
:10096000B70710F0A61BB70B881F991F5A95A9F758
:1009700080959095BC01CD010895A1E21A2EAA1B85
:10098000BB1BFD010DC0AA1FBB1FEE1FFF1FA2173F
:10099000B307E407F50720F0A21BB30BE40BF50B3C
:1009A000661F771F881F991F1A9469F760957095C5
:1009B000809590959B01AC01BD01CF010895AEE0FB
:1009C000B0E0E5EEF4E00C9495070D891E898F895F
:1009D000988D26E02C831A83098397FF02C080E05C
:1009E00090E801979E838D83AE01455E5F4F698DD0
:1009F0007A8DCE0101960E940F054D815E8157FDD3
:100A00000AC02F813885421753070CF49A01F80168
:100A1000E20FF31F10822E96E4E00C94B107ACE0D5
:100A2000B0E0E5E1F5E00C9487077C016B018A01F9
:100A3000FC0117821682838181FFBDC1CE01019620
:100A40004C01F7019381F60193FD859193FF81910C
:100A50006F01882309F4ABC1853239F493FD859188
:100A600093FF81916F01853229F4B70190E00E94D4
:100A7000F706E7CF512C312C20E02032A0F48B3246
:100A800069F030F4803259F0833269F420612CC06F
:100A90008D3239F0803339F4216026C02260246021
:100AA00023C0286021C027FD27C030ED380F3A3021
:100AB00078F426FF06C0FAE05F9E300D1124532E15
:100AC00013C08AE0389E300D1124332E20620CC0F2
:100AD0008E3221F426FD6BC1206406C08C3611F4E1
:100AE000206802C0883641F4F60193FD859193FF9A
:100AF00081916F018111C1CF982F9F7D95549330C3
:100B000028F40C5F1F4FFFE3F9830DC0833631F0EB
:100B1000833771F0833509F05BC022C0F801808112
:100B200089830E5F1F4F44244394512C540115C0F8
:100B30003801F2E06F0E711CF801A080B18026FF31
:100B400003C0652D70E002C06FEF7FEFC5012C87F9
:100B50000E94EC062C0183012C852F77222E17C0D2
:100B60003801F2E06F0E711CF801A080B18026FF01
:100B700003C0652D70E002C06FEF7FEFC5012C87C9
:100B80000E94E1062C012C852068222E830123FC83
:100B90001BC0832D90E048165906B0F4B70180E2DF
:100BA00090E00E94F7063A94F4CFF50127FC859176
:100BB00027FE81915F01B70190E00E94F706311096
:100BC0003A94F1E04F1A51084114510471F7E5C00D
:100BD000843611F0893639F5F80127FF07C06081A6
:100BE0007181828193810C5F1F4F08C06081718188
:100BF000882777FD8095982F0E5F1F4F2F76B22E96
:100C000097FF09C090958095709561957F4F8F4FA4
:100C10009F4F2068B22E2AE030E0A4010E942907ED
:100C2000A82EA81844C0853729F42F7EB22E2AE0BA
:100C300030E025C0F22FF97FBF2E8F36C1F018F4B7
:100C4000883579F0B4C0803719F0883721F0AFC00B
:100C50002F2F2061B22EB4FE0DC08B2D8460B82ED4
:100C600009C024FF0AC09F2F9660B92E06C028E055
:100C700030E005C020E130E002C020E132E0F801C0
:100C8000B7FE07C060817181828193810C5F1F4F25
:100C900006C06081718180E090E00E5F1F4FA4016B
:100CA0000E942907A82EA818FB2DFF77BF2EB6FE9D
:100CB0000BC02B2D2E7FA51450F4B4FE0AC0B2FC3D
:100CC00008C02B2D2E7E05C07A2C2B2D03C07A2C2C
:100CD00001C0752C24FF0DC0FE01EA0DF11D8081BD
:100CE000803311F4297E09C022FF06C073947394E7
:100CF00004C0822F867809F0739423FD13C020FF6F
:100D000006C05A2C731418F4530C5718732C731410
:100D100068F4B70180E290E02C870E94F706739494
:100D20002C85F5CF731410F4371801C0312C24FF33
:100D300012C0B70180E390E02C870E94F7062C8553
:100D400022FF17C021FF03C088E590E002C088E7BA
:100D500090E0B7010CC0822F867859F021FD02C0C7
:100D600080E201C08BE227FD8DE2B70190E00E9496
:100D7000F706A51438F4B70180E390E00E94F70667
:100D80005A94F7CFAA94F401EA0DF11D8081B701BE
:100D900090E00E94F706A110F5CF332009F451CE60
:100DA000B70180E290E00E94F7063A94F6CFF7018F
:100DB0008681978102C08FEF9FEF2C96E2E10C9421
:100DC000A307FC010590615070400110D8F7809591
:100DD00090958E0F9F1F0895FC0161507040019007
:100DE0000110D8F7809590958E0F9F1F08950F934F
:100DF0001F93CF93DF93182F092FEB018B8181FD78
:100E000003C08FEF9FEF20C082FF10C04E815F8133
:100E10002C813D81421753077CF4E881F9819F01C1
:100E20002F5F3F4F39832883108306C0E885F985FB
:100E3000812F0995892B29F72E813F812F5F3F4F05
:100E40003F832E83812F902FDF91CF911F910F91A0
:100E50000895FA01AA27283051F1203181F1E89450
:100E60006F936E7F6E5F7F4F8F4F9F4FAF4FB1E09D
:100E70003ED0B4E03CD0670F781F891F9A1FA11D98
:100E8000680F791F8A1F911DA11D6A0F711D811D99
:100E9000911DA11D20D009F468943F912AE0269F5E
:100EA00011243019305D3193DEF6CF010895462FBD
:100EB0004770405D4193B3E00FD0C9F7F6CF462F9E
:100EC0004F70405D4A3318F0495D31FD4052419307
:100ED00002D0A9F7EACFB4E0A695979587957795C4
:100EE0006795BA95C9F700976105710508959B014B
:100EF000AC010A2E06945795479537952795BA95D4
:100F0000C9F7620F731F841F951FA01D08952F92AC
:100F10003F924F925F926F927F928F929F92AF9289
:100F2000BF92CF92DF92EF92FF920F931F93CF93D6
:100F3000DF93CDB7DEB7CA1BDB0B0FB6F894DEBF6D
:100F40000FBECDBF09942A88398848885F846E8493
:100F50007D848C849B84AA84B984C884DF80EE80DD
:100F6000FD800C811B81AA81B981CE0FD11D0FB6E6
:100F7000F894DEBF0FBECDBFED010895F894FFCF0A
:100F80006572726F7220313A20696E76616C6964A5
:100F900020696E70757420737472696E6720666F55
:100FA000726D61742E002573006572726F7220324B
:100FB0003A20696E76616C6964206F706572617445
:100FC0006F722E0044656661756C74206572726F75
:100FD000723A20556E6B6E6F776E206572726F720B
:100FE0002E002573203D202569006572726F7220E6
:100FF000353A20696E76616C696420696E7075742B
:1010000020737472696E6720666F726D61742E0052
:1010100052656365697665643A200025732563002F
:06102000150400030001AD
:00000001FF
