:100000000C9434000C9451000C9451000C94510049
:100010000C9451000C9451000C9451000C9451001C
:100020000C9451000C9451000C9451000C9451000C
:100030000C9451000C9451000C9451000C945100FC
:100040000C9451000C9451000C9451000C945100EC
:100050000C9451000C9451000C9451000C945100DC
:100060000C9451000C94510011241FBECFEFD8E026
:10007000DEBFCDBF11E0A0E0B1E0E8E5FDE002C0E9
:1000800005900D92A430B107D9F711E0A4E0B1E0DA
:1000900001C01D92A730B107E1F70E947E000C94C9
:1000A000AA060C940000AC019B011092C500A4E2CA
:1000B000B4EF0E946B03E4E6E49F9001E59F300DEE
:1000C000112440E050E00E94770321503109209331
:1000D000C40088E18093C10086E28093C200089545
:1000E0008091C00087FFFCCF8091C6000895909159
:1000F000C00095FFFCCF8093C6000895CF93DF9397
:10010000CDB7DEB7C154D1090FB6F894DEBF0FBE2C
:10011000CDBF84E090E00E943C0160E170E080E6A9
:1001200090E00E945300E12CF12C82E2C82ED12CE9
:10013000CC0EDD1E90E2792E20E0822E21E0922E60
:1001400001E2AA24A394B12CAC0EBD1E0E94700043
:10015000182F0E947700F60180E2E816F10420F4DF
:10016000EE0DFF1D108307C0872D11928A95E9F7C8
:100170001AA3E12CF12CDF92CF929F928F921F92C3
:100180000F93BF92AF920E94B503C5010E94B001C8
:100190009FEFE91AF90A0FB6F894DEBF0FBECDBF84
:1001A000D5CF45984498209104013091050128301D
:1001B000310559F443988BB9439AE0E9F1E0DF0146
:1001C0001197F1F743983197F1F72091040130919D
:1001D000050124303105F1F443989C01207F332739
:1001E0002BB9439A20E931E0F9013197F1F74398AF
:1001F000F9013197F1F7439844E0880F991F4A9528
:10020000E1F78BB9439AC9010197F1F74398C90106
:100210000197F1F7089545984498809104019091D1
:100220000501089761F4439881E08BB9439A80E413
:100230009FE1FC013197F1F743980197F1F7809125
:100240000401909105010497B1F443981BB8439AB7
:1002500080E49FE1FC013197F1F74398FC0131976D
:10026000F1F7439820E12BB9439AFC013197F1F75C
:1002700043980197F1F70895CF92DF92EF92FF92A2
:100280007C0188E387B98AB1806F8AB92FE782E35E
:1002900092E0215080409040E1F700C0000080E3F0
:1002A00090E00E94D10080E190E40197F1F780E3B3
:1002B00090E00E94D10050E9C52EDD24D394C60100
:1002C0000197F1F780E390E00E94D100C601019709
:1002D000F1F728E0E216F104C1F4F0920501E09292
:1002E00004018AB18FEF8AB988E390E00E94D100BF
:1002F00088E090E00E94D1000E940B0186E090E02F
:100300000E94D1008FE090E020C084E0E816F10464
:1003100011F5F0920501E0920401439880E28BB957
:10032000439A80E699E00197F1F788E290E00E9415
:10033000D10088E090E00E94D1000E940B0186E08D
:1003400090E00E94D1008CE090E0FF90EF90DF9071
:10035000CF900C94D100FF90EF90DF90CF90089554
:100360008F929F92AF92BF92CF92DF92EF92FF92C5
:10037000CF934C010E940B01E12CF12CC12CD12C0C
:10038000F0E9AF2EBB24B3945DC08A3009F06CC095
:1003900020E1E216F1040CF062C08FEFE81AF80ACF
:1003A00008C090E4C916D1040CF053C0E0E1EE2E71
:1003B000F12C70E4C72ED12CF401EE0DFF1DC0818D
:1003C000C60180680E94D100459A4498209104019A
:1003D000309105012830310551F44398CBB9439A47
:1003E000C5010197F1F74398C5010197F1F72091F5
:1003F00004013091050124303105D1F443988C2F4C
:10040000807F8BB9439AC5010197F1F74398C501E5
:100410000197F1F7439820E1C29FC00111248BB9E5
:10042000439AC5010197F1F74398C5010197F1F788
:100430008FEFE81AF80A9FEFC91AD90A20E2E216EC
:10044000F104C4F4F401EE0DFF1D808181119DCFF4
:1004500011C08A3079F060E1E62EF12CADCF90E149
:10046000E916F10439F49DCF20E1E216F10409F018
:10047000A3CF97CFCF91FF90EF90DF90CF90BF9019
:10048000AF909F908F9008952F923F924F925F92DE
:100490006F927F928F929F92AF92BF92CF92DF9294
:1004A000EF92FF920F931F93CF93DF93CDB7DEB7F9
:1004B000C456D1090FB6F894DEBF0FBECDBFA596C6
:1004C0009FAF8EAFA597FB0140E050E00BC021919C
:1004D000203219F44F5F5F4F05C0211103C04F5FF9
:1004E0005F4F0AC09F01261B370BA5968EAD9FADAF
:1004F000A597281739075CF3A3961FAE1EAEA397E6
:1005000020E030E0E0E0F0E08E010F5F1F4F3A01A5
:1005100091E0691A710880E2282E9EC0AFEFEA1AB6
:10052000FA0AB0E25B120CC08FEFC81AD80A570162
:1005300007C04B01E12CF12CA12CB12CC12CD12CEA
:10054000A396AEADBFADA397CA16DB0649F44B0127
:100550008A0C9B1C6801E12CF12CA01AB10A13C073
:10056000D4015D904D01552091F3A5968EAD9FADC0
:10057000A597E816F90694F2EACFD6013D926D01EF
:100580007D01E01AF10AD4013D904D01B0E23B1229
:100590000DC06801CE0CDF1CD6011C926F01CE0C81
:1005A000DF1CB1E1CB16D10474F419C0332089F3F8
:1005B00025014C0C5D1CA5968EAD9FADA5974816E8
:1005C0005906DCF2E6CFE1E4F0E0EC0FFD1FE20FAC
:1005D000F31F9AE090832F5F3F4FE0E0F0E0580177
:1005E000C12CD12CB1E48B2E912C8C0E9D1E820E31
:1005F000931E0BC0D5013D905D0124014C0C5D1C88
:10060000D2013C92BFEFCB1ADB0ACE14DF0494F385
:10061000F7FE02C0E12CF12CEE0DFF1D2E0D3F1D4B
:10062000A3968EAD9FADA3978615970564F4A1E4BC
:10063000EA2EF12CEC0EFD1EE20EF31ED7012C92D9
:100640002F5F3F4F3196A3968EAD9FADA397019636
:10065000A3969FAF8EAFA397A396AEADBFADA39762
:10066000A417B5070CF465CF7E01B1E4EB0EF11CC5
:10067000F701E20FF31F1082FF92EF9280E091E00A
:100680009F938F931F9280E28F93FF92EF920E942D
:10069000B503C7010E94B0010FB6F894DEBF0FBECC
:1006A000CDBFCC59DF4F0FB6F894DEBF0FBECDBF24
:1006B000DF91CF911F910F91FF90EF90DF90CF903E
:1006C000BF90AF909F908F907F906F905F904F9072
:1006D0003F902F900895A29FB001B39FC001A39FA8
:1006E00001D0B29F700D811D1124911D0895052E1A
:1006F00097FB16F4009407D057FD0DD00E9493038A
:1007000007FC09D07EF490958095709561957F4F98
:100710008F4F9F4F089550954095309521953F4FAD
:100720004F4F5F4F0895A1E21A2EAA1BBB1BFD017C
:100730000DC0AA1FBB1FEE1FFF1FA217B307E407C0
:10074000F50720F0A21BB30BE40BF50B661F771F18
:10075000881F991F1A9469F76095709580959095F8
:100760009B01AC01BD01CF010895EF92FF92CF93A1
:10077000DF93CDB7DEB72E970FB6F894DEBF0FBE6E
:10078000CDBFED88FE888F89988D26E02C83FA8274
:10079000E98297FF02C080E090E801979E838D83F5
:1007A000CE014B96AC01698D7A8DCE0101960E94E7
:1007B000F2034D815E8157FD0AC02F8138854217B3
:1007C00053070CF49A01F701E20FF31F10822E96E3
:1007D0000FB6F894DEBF0FBECDBFDF91CF91FF9073
:1007E000EF900895ACE0B0E0E8EFF3E00C9473060E
:1007F0006C015B017A01FC0117821682838181FF03
:10080000C1C166246394712C6C0E7D1EF601938128
:10081000F50193FD859193FF81915F01882309F490
:10082000ADC1853239F493FD859193FF81915F01CC
:10083000853229F4B60190E00E94DF05E7CF512C04
:1008400010E020E02032A8F48B3261F028F48032EE
:1008500051F0833271F40BC08D3239F0803349F49A
:10086000216028C02260246025C0286023C0206148
:1008700021C027FD27C0382F30533A3078F426FFA7
:1008800006C0FAE05F9E300D1124532E13C04AE0DB
:10089000149F300D1124132F20620CC08E3221F4CE
:1008A00026FD6CC1206406C08C3611F4206802C09D
:1008B000883641F4F50193FD859193FF81915F01A5
:1008C0008111C0CF982F9554933018F090529330E7
:1008D00030F4F4E0EF0EF11C4FE349830EC0833691
:1008E00031F0833779F0833509F05DC023C0F7011B
:1008F0008081898342E0E40EF11C44244394512C0E
:10090000430115C0170152E0250E311CF70180800C
:10091000918026FF03C0652D70E002C06FEF7FEF6E
:10092000C4012C870E94D4052C0171012C85022F53
:100930000F7717C01701F2E02F0E311CF7018080EE
:10094000918026FF03C0652D70E002C06FEF7FEF3E
:10095000C4012C870E94C9052C012C85022F006838
:10096000710103FD1CC006C0B60180E290E00E9448
:10097000DF051150812F90E048165906A8F30FC0EB
:10098000F40107FD859107FF81914F01B60190E0C9
:100990000E94DF0511111150F1E04F1A5108411466
:1009A000510471F7E8C0843611F0893651F5F7012A
:1009B00027FF07C0608171818281938144E050E00C
:1009C00008C060817181882777FD8095982F42E06B
:1009D00050E0E40EF51E3FE6432E422297FF09C089
:1009E00090958095709561957F4F8F4F9F4F50E800
:1009F000452A2AE030E0A3010E941506882E8618B9
:100A000040C0022F853721F40F7E2AE030E01FC05E
:100A1000097F8F36A1F020F4883509F0AFC00BC0F4
:100A2000803721F0883709F0A9C001C0006104FFB8
:100A300009C0046007C024FF08C0066006C028E0A3
:100A400030E005C020E130E002C020E132E0F701F3
:100A500007FF07C0608171818281938144E050E08B
:100A600006C06081718180E090E042E050E0E40ED9
:100A7000F51EA3010E941506882E86188FE7482EC2
:100A8000402246FE0BC0042D0E7F851450F444FE18
:100A90000AC042FC08C0042D0E7E05C0982C042D0F
:100AA00003C0982C01C0952C04FF0DC0FE01E80D79
:100AB000F11D8081803311F4097E09C002FF06C058
:100AC0009394939404C0802F867809F0939403FD47
:100AD00012C000FF0DC0582C911650F4510E591839
:100AE000912E06C0B60180E290E00E94DF0593944B
:100AF0009116C0F304C0911610F4191901C010E04A
:100B000004FF10C0B60180E390E00E94DF0502FF01
:100B10001EC001FF03C088E590E002C088E790E0B6
:100B2000B6010CC0802F867891F001FD02C080E2F2
:100B300001C08BE207FD8DE2B60190E00E94DF0567
:100B400006C0B60180E390E00E94DF055A94851448
:100B5000C0F38A94F301E80DF11DB601808190E0A5
:100B60000E94DF058110F5CF06C0B60180E290E05B
:100B70000E94DF0511501111F8CF48CEF6012681F1
:100B8000378102C02FEF3FEFC9012C96E2E10C94B0
:100B90008F06FC010590615070400110D8F78095D8
:100BA00090958E0F9F1F0895FC0161507040019039
:100BB0000110D8F7809590958E0F9F1F0895CF92C2
:100BC000DF92EF92FF926C017B01DB0113968C9117
:100BD00081FD04C0CC24CA94DC2C21C082FF10C04B
:100BE000FB012681378184819581281739078CF490
:100BF0000190F081E02DC192DB01ED93FC9309C0DF
:100C0000DB011896ED91FC9119978C2D0995892B94
:100C100009F7F70186819781019697838683C6013C
:100C2000FF90EF90DF90CF900895FA01AA27283027
:100C300051F1203181F1E8946F936E7F6E5F7F4FA9
:100C40008F4F9F4FAF4FB1E03ED0B4E03CD0670F25
:100C5000781F891F9A1FA11D680F791F8A1F911D78
:100C6000A11D6A0F711D811D911DA11D20D009F4C8
:100C700068943F912AE0269F11243019305D31930A
:100C8000DEF6CF010895462F4770405D4193B3E0F3
:100C90000FD0C9F7F6CF462F4F70405D4A3318F09A
:100CA000495D31FD4052419302D0A9F7EACFB4E04B
:100CB000A6959795879577956795BA95C9F7009703
:100CC0006105710508959B01AC010A2E06945795A4
:100CD000479537952795BA95C9F7620F731F841FFB
:100CE000951FA01D08952F923F924F925F926F9291
:100CF0007F928F929F92AF92BF92CF92DF92EF92AC
:100D0000FF920F931F93CF93DF93CDB7DEB7CA1B2C
:100D1000DB0B0FB6F894DEBF0FBECDBF09942A8857
:100D2000398848885F846E847D848C849B84AA84FF
:100D3000B984C884DF80EE80FD800C811B81AA818C
:100D4000B981CE0FD11D0FB6F894DEBF0FBECDBF57
:080D5000ED010895F894FFCFB6
:040D580025730000FF
:00000001FF
